S01B0000456C65637472696357617465724865617465722E7372656382
S11300000C9446000C9478000C94AF000C94EA0015
S11300100C9463000C9463000C9463000C946300D0
S11300200C9463000C9463000C9463000C942501FD
S11300300C9463000C9463000C9463000C946300B0
S11300400C9463000C9463000C9463000C946300A0
S11300500C946300B403C503D603E703F80309044F
S11300601A042B043C044D04760487049804A90460
S1130070BA04CB04DC04ED04FE040F05480558055E
S11300806805780588059805A805B80511241FBEDC
S1130090CFE5D8E0DEBFCDBF10E0A0E6B0E0E0E8F9
S11300A0F4E102C005900D92A236B107D9F720E021
S11300B0A2E6B0E001C01D92A738B207E1F70E94A2
S11300C065000C943E0A0C9400000E940C0280917E
S11300D08600813021F030F0823039F0F8CF0E9470
S11300E05402F5CF0E943401F2CF0E944001EFCFB9
S11300F01F920F920FB60F9211242F933F934F9399
S11301005F936F937F938F939F93AF93BF93EF937B
S1130110FF938091860081110CC081E0809386005A
S113012080E00E94AC0290E09093660080936500AA
S113013005C08150823010F410928600FF91EF9137
S1130140BF91AF919F918F917F916F915F914F91EB
S11301503F912F910F900FBE0F901F9018951F92F3
S11301600F920FB60F9211242F933F934F935F93E7
S11301706F937F938F939F93AF93BF93EF93FF936B
S113018080918600811104C081E08093860011C0B3
S1130190813079F4809160008B5F809360008C34AF
S11301A018F08BE4809360006091600080E00E940E
S11301B09202FF91EF91BF91AF919F918F917F91A7
S11301C06F915F914F913F912F910F900FBE0F90C0
S11301D01F9018951F920F920FB60F9211242F9310
S11301E03F934F935F936F937F938F939F93AF93BB
S11301F0BF93EF93FF9380916E00811104C081E05F
S113020080936E0011C0813079F480916000855034
S113021080936000833218F483E2809360006091DD
S1130220600080E00E949202FF91EF91BF91AF9134
S11302309F918F917F916F915F914F913F912F91FA
S11302400F900FBE0F901F9018951F920F920FB62C
S11302500F9211248F9381E0809363008F910F900C
S11302600FBE0F901F9018950E94350580E00E94E4
S1130270ED0281E00E94ED0282E00E94ED02089509
S113028080E00E94ED0281E00E94ED0282E00E9483
S1130290ED028091670090916800019729F48091A4
S11302A065000E94880302C00E9435050E94500325
S11302B0813089F4809165009091660086349105BF
S11302C050F4059690936600809365001092640044
S11302D00E94880314C00E943503813081F4809108
S11302E06500909166008432910548F005979093DB
S11302F0660080936500109264000E9488036091F8
S1130300650080E00E949202089580916F009091B0
S11303107000AC014B5F5F4F209165003091660027
S11303202417350780F4BC016550710962177307FF
S113033050F480E00E94ED0281E00E94ED0282E030
S11303400E94ED0208952417350750F481E00E94BD
S1130350ED0280E00E94D80282E00E94D802089553
S113036005978217930798F481E00E94D80282E0EF
S11303700E94ED028091670090916800019721F43A
S113038080E00E94D802089580E00E94ED02089562
S1130390BC0190E020E030E00BC0E92FF0E0EE0F6C
S11303A0FF1FE60FF71F40815181240F351F9F5F08
S11303B09A3098F3ADECBCEC0E942F0A9695879581
S11303C0969587959695879508950E940203BC019A
S11303D080E090E00E940C0920E030E040E05FE320
S11303E00E9472090E94DD0880E009C0E82FF0E055
S11303F0EE0FFF1FEE58FF4F718360838F5F8A30CB
S1130400A8F382E790E00E94C80190937000809363
S11304106F001092620008950E946B0380E00E94B6
S1130420C30281E00E94C30282E00E94C30280E012
S11304300E94120381E00E94120382E00E941203D0
S1130440109286000E948F0280E00E94AC028F3FCF
S113045049F080E00E94AC0290E0909366008093A3
S1130460650006C08CE390E090936600809365007D
S11304700E94E5016091650080E00E949202089567
S11304802091620030E0220F331F820F931FFC0182
S113049071836083809162008F5F809362008A30F1
S11304A011F410926200089580916300813009F57F
S11304B00E940203BC0180E090E00E940C0920E04D
S11304C030E040E05FE30E9472090E94DD0870930F
S11304D06C0060936B0082E790E00E94400282E728
S11304E090E00E94C8019093700080936F00109276
S11304F0630080916B000E9488030E9485010E9422
S11305005003813021F00E943503813039F40E9478
S113051035051092640082E08093860008950E945D
S11305203D080895CF93DF93D82FC62F0E944C081F
S113053080E50E947A088D2F0E94A0088C2F0E94CB
S1130540A0080E94D6088FE39CE90197F1F700C048
S11305500000DF91CF910895CF93C82F0E944C08DB
S113056080E50E947A088C2F0E94A0080E946308EC
S113057080E50E9487080E94B808C82F0E94D60808
S11305808C2FCF910895813049F018F0823059F0C2
S1130590089561E080E20E94CF05089561E08AE059
S11305A00E94CF05089561E085E20E94CF05089579
S11305B0813049F018F0823059F0089561E080E20A
S11305C00E94BE06089561E08AE00E94BE06089576
S11305D061E085E20E94BE060895813049F018F07A
S11305E0823059F0089560E080E20E94BE060895CA
S11305F060E08AE00E94BE06089560E085E20E9401
S1130600BE06089580E00E943E059C01A4EFB1E07F
S11306100E942F0A2FEF33E040E050E00E94070AC7
S1130620C9010895813039F018F0823039F0089505
S11306300E94190808950E94260808950E9433080C
S11306400895813041F018F0823049F00CC086E101
S11306500E94AD07089587E10E94AD0708958CE0DC
S11306600E94AD07089580E00895CF938CE00E9426
S11306702103C82F811110C02FEF8DEE92E021507D
S113068080409040E1F700C000008CE00E9421030C
S1130690811103C0C1E001C0C0E08C2FCF91089547
S11306A0CF9387E10E942103C82F811110C02FEF3F
S11306B08DEE92E0215080409040E1F700C00000B0
S11306C08CE00E942103811103C0C1E001C0C0E09D
S11306D08C2FCF91089561E082E20E94CF0561E002
S11306E081E20E94CF0561E08DE00E94CF0561E0C8
S11306F08CE20E94CF0561E08DE20E94CF0561E0AB
S11307008EE20E94CF0561E08FE20E94CF0508953A
S1130710FF920F931F93CF93DF93D82F00E010E045
S11307209AC18DECD89F812D1124C82FC695C695EA
S1130730C6959C2F990F892F880F880F890FFD2E3E
S1130740F81A61E081E20E94BE0660E082E20E9443
S1130750BE068C2F90E08A30910508F0AEC0FC01F3
S1130760E65DFF4F0C94290A60E08CE20E94BE060D
S113077060E08DE20E94BE0660E08EE20E94BE064A
S113078060E08FE20E94BE0698C061E08CE20E94A5
S1130790BE0660E08DE20E94BE0660E08EE20E942A
S11307A0BE0660E08FE20E94BE0687C060E08CE275
S11307B00E94BE0661E08DE20E94BE0660E08EE209
S11307C00E94BE0660E08FE20E94BE0676C061E031
S11307D08CE20E94BE0661E08DE20E94BE0660E0EB
S11307E08EE20E94BE0660E08FE20E94BE0665C0F3
S11307F060E08CE20E94BE0660E08DE20E94BE06CC
S113080061E08EE20E94BE0660E08FE20E94BE06B6
S113081054C061E08CE20E94BE0660E08DE20E945A
S1130820BE0661E08EE20E94BE0660E08FE20E9496
S1130830BE0643C060E08CE20E94BE0661E08DE229
S11308400E94BE0661E08EE20E94BE0660E08FE276
S11308500E94BE0632C061E08CE20E94BE0661E0E6
S11308608DE20E94BE0661E08EE20E94BE0660E058
S11308708FE20E94BE0621C060E08CE20E94BE06A8
S113088060E08DE20E94BE0660E08EE20E94BE0639
S113089061E08FE20E94BE0610C061E08CE20E941B
S11308A0BE0660E08DE20E94BE0660E08EE20E9419
S11308B0BE0661E08FE20E94BE068FE39CE90197C9
S11308C0F1F700C0000060E081E20E94BE0661E032
S11308D082E20E94BE068F2D90E08A30910508F0D6
S11308E0AEC0FC01EC5CFF4F0C94290A60E08CE282
S11308F00E94BE0660E08DE20E94BE0660E08EE2C9
S11309000E94BE0660E08FE20E94BE0698C061E0CD
S11309108CE20E94BE0660E08DE20E94BE0660E0AA
S11309208EE20E94BE0660E08FE20E94BE0687C08F
S113093060E08CE20E94BE0661E08DE20E94BE0689
S113094060E08EE20E94BE0660E08FE20E94BE0676
S113095076C061E08CE20E94BE0661E08DE20E94F6
S1130960BE0660E08EE20E94BE0660E08FE20E9456
S1130970BE0665C060E08CE20E94BE0660E08DE2C7
S11309800E94BE0661E08EE20E94BE0660E08FE235
S11309900E94BE0654C061E08CE20E94BE0660E084
S11309A08DE20E94BE0661E08EE20E94BE0660E017
S11309B08FE20E94BE0643C060E08CE20E94BE0645
S11309C061E08DE20E94BE0661E08EE20E94BE06F6
S11309D060E08FE20E94BE0632C061E08CE20E94B9
S11309E0BE0661E08DE20E94BE0661E08EE20E94D6
S11309F0BE0660E08FE20E94BE0621C060E08CE289
S1130A000E94BE0660E08DE20E94BE0660E08EE2B7
S1130A100E94BE0661E08FE20E94BE0610C061E043
S1130A208CE20E94BE0660E08DE20E94BE0660E099
S1130A308EE20E94BE0661E08FE20E94BE068FE352
S1130A409CE90197F1F700C0000060E082E20E9497
S1130A50BE060F5F1F4F0233110508F462CEDF910B
S1130A60CF911F910F91FF90089560E081E20E9461
S1130A70BE0660E082E20E94BE06089590E08830DF
S1130A80910508F084C0FC01E25CFF4F0C94290A34
S1130A9087B18E7F87B987B18D7F87B987B18B7F07
S1130AA087B987B1877F87B987B18F7E87B96FC0D0
S1130AB087B1816087B987B18D7F87B987B18B7F13
S1130AC087B987B1877F87B987B18F7E87B95FC0C0
S1130AD087B18E7F87B987B1826087B987B18B7FF1
S1130AE087B987B1877F87B987B18F7E87B94FC0B0
S1130AF087B1816087B987B1826087B987B18B7FFD
S1130B0087B987B1877F87B987B18F7E87B93FC09F
S1130B1087B18E7F87B987B18D7F87B987B18460AC
S1130B2087B987B1877F87B987B18F7E87B92FC08F
S1130B3087B1816087B987B18D7F87B987B18460B8
S1130B4087B987B1877F87B987B18F7E87B91FC07F
S1130B5087B18E7F87B987B1826087B987B1846096
S1130B6087B987B1877F87B987B18F7E87B90FC06F
S1130B7087B1816087B987B1826087B987B18460A2
S1130B8087B987B1877F87B987B18F7E87B986B1E7
S1130B90806486B9349BFECF84B195B108959DECF1
S1130BA0899F912D1124969596959695662309F41F
S1130BB072C0613009F0E1C0923021F118F4913033
S1130BC039F008959330C1F1943009F44CC008957C
S1130BD09DEC899F912D1124969596959695990F44
S1130BE0292F220F220F920F891B47B321E030E0F7
S1130BF0B90102C0660F771F8A95E2F7CB01842BF7
S1130C0087BB08959DEC899F912D112492959F7027
S1130C10990F990F292F220F220F920F891B41B38D
S1130C2021E030E0B90102C0660F771F8A95E2F730
S1130C30CB01842B81BB089599E8899F912D1124C0
S1130C4092959F707EE1979F8019112444B321E00F
S1130C5030E0B90102C0660F771F8A95E2F7CB0135
S1130C60842B84BB08959DEC899F912D112492952A
S1130C709695977078E2979F801911244AB321E0E2
S1130C8030E0B90102C0660F771F8A95E2F7CB0105
S1130C90842B8ABB0895923029F118F4913039F0ED
S1130CA008959330D1F1943009F44FC008959DEC28
S1130CB0899F912D1124969596959695990F292F94
S1130CC0220F220F920F891B47B321E030E0B901B4
S1130CD002C0660F771F8A95E2F7CB0180958423C3
S1130CE087BB08959DEC899F912D112492959F7047
S1130CF0990F990F292F220F220F920F891B41B3AD
S1130D0021E030E0B90102C0660F771F8A95E2F74F
S1130D10CB018095842381BB089599E8899F912D07
S1130D20112492959F707EE1979F8019112444B3FA
S1130D3021E030E0B90102C0660F771F8A95E2F71F
S1130D40CB018095842384BB08959DEC899F912DCC
S1130D50112492959695977078E2979F80191124A3
S1130D604AB321E030E0B90102C0660F771F8A95CB
S1130D70E2F7CB01809584238ABB08959DEC899F7B
S1130D80912D1124969596959695662309F472C033
S1130D90613009F0E1C0923021F118F4913039F05A
S1130DA008959330C1F1943009F44CC008959DEC3A
S1130DB0899F912D1124969596959695990F292F93
S1130DC0220F220F920F891B48B321E030E0B901B2
S1130DD002C0660F771F8A95E2F7CB01842B88BB8C
S1130DE008959DEC899F912D112492959F70990FE0
S1130DF0990F292F220F220F920F891B42B321E052
S1130E0030E0B90102C0660F771F8A95E2F7CB0183
S1130E10842B82BB089599E8899F912D1124929582
S1130E209F707EE1979F8019112445B321E030E043
S1130E30B90102C0660F771F8A95E2F7CB01842BB4
S1130E4085BB08959DEC899F912D112492959695CB
S1130E50977078E2979F801911244BB321E030E01A
S1130E60B90102C0660F771F8A95E2F7CB01842B84
S1130E708BBB0895923029F118F4913039F008951C
S1130E809330D1F1943009F44FC008959DEC899FBB
S1130E90912D1124969596959695990F292F220FA9
S1130EA0220F920F891B48B321E030E0B90102C040
S1130EB0660F771F8A95E2F7CB018095842388BB60
S1130EC008959DEC899F912D112492959F70990FFF
S1130ED0990F292F220F220F920F891B42B321E071
S1130EE030E0B90102C0660F771F8A95E2F7CB01A3
S1130EF08095842382BB089599E8899F912D1124BC
S1130F0092959F707EE1979F8019112445B321E04B
S1130F1030E0B90102C0660F771F8A95E2F7CB0172
S1130F208095842385BB08959DEC899F912D112480
S1130F3092959695977078E2979F801911244BB3F8
S1130F4021E030E0B90102C0660F771F8A95E2F70D
S1130F50CB01809584238BBB08959DEC899F912DB3
S1130F601124969596959695923009F118F491303E
S1130F7039F05DC0933091F1943009F443C057C007
S1130F802DEC829F212D1124269526952695220F3E
S1130F90922F990F990F290F821B282F86B390E067
S1130FA002C0959587952A95E2F7817008952DECF6
S1130FB0829F212D112422952F70220F220F922F10
S1130FC0990F990F290F821B282F80B390E002C03C
S1130FD0959587952A95E2F78170089529E8829F6F
S1130FE0212D112422952F709EE1299F801911240F
S1130FF0282F83B390E002C0959587952A95E2F750
S1131000817008952DEC829F212D1124229526951F
S1131010277098E2299F80191124282F89B390E022
S113102002C0959587952A95E2F78170089580E02E
S113103008958FB780688FBF8BB780648BBF85B7E7
S11310408E7F85BF85B7826085BF08958FB780681E
S11310508FBF8BB780688BBF85B7846085BF85B72A
S1131060886085BF08958FB780688FBF8BB7806213
S11310708BBF84B7806484BF089588E480B986B741
S1131080846086BF2FEF81EE94E021508040904031
S1131090E1F700C00000089586B7806286BF86B776
S11310A0806886BF06B607FEFDCF81B1887F883091
S11310B0E1F72FEF81EE94E0215080409040E1F77A
S11310C000C00000089586B7806286BF86B7806836
S11310D086BF06B607FEFDCF81B1887F8031E1F778
S11310E02FEF81EE94E0215080409040E1F700C062
S11310F000000895880F83B986B7806886BF06B656
S113110007FEFDCF81B1887F8831E1F7089590E033
S1131110880F991F816083B986B7806886BF06B639
S113112007FEFDCF81B1887F8034E1F72FEF81EE98
S113113094E0215080409040E1F700C00000089501
S113114083B986B78F7D86BF86B7806886BF06B6AB
S113115007FEFDCF81B1887F8832E1F72FEF81EE62
S113116094E0215080409040E1F700C000000895D1
S113117086B78F7D86BF86B78F7E86BF86B780642D
S113118086BF86B7806886BF06B607FEFDCF81B1ED
S1131190887F8035E1F72FEF81EE94E02150804085
S11311A09040E1F700C0000083B1089586B78061E4
S11311B086BF86B7806886BF08950E94510988F06B
S11311C09F5798F0B92F9927B751B0F0E1F0660F07
S11311D0771F881F991F1AF0BA95C9F714C0B13048
S11311E091F00E946B09B1E008950C946B09672F8C
S11311F0782F8827B85F39F0B93FCCF38695779577
S11312006795B395D9F73EF490958095709561955F
S11312107F4F8F4F9F4F0895E89409C097FB3EF48A
S113122090958095709561957F4F8F4F9F4F99232F
S1131230A9F0F92F96E9BB279395F69587957795AD
S11312406795B795F111F8CFFAF4BB0F11F460FF6D
S11312501BC06F5F7F4F8F4F9F4F16C0882311F0C5
S113126096E911C0772321F09EE8872F762F05C0D9
S1131270662371F096E8862F70E060E02AF09A9574
S1131280660F771F881FDAF7880F9695879597F969
S1131290089557FD9058440F551F59F05F3F71F062
S11312A04795880F97FB991F61F09F3F79F08795C9
S11312B00895121613061406551FF2CF4695F1DF52
S11312C008C0161617061806991FF1CF86957105E2
S11312D0610508940895E894BB2766277727CB0116
S11312E097F908950E9485090C94F6090E94E8096B
S11312F038F00E94EF0920F0952311F00C94DF09D7
S11313000C94E50911240C946C090E94490970F3AA
S1131310959FC1F3950F50E0551F629FF001729F96
S1131320BB27F00DB11D639FAA27F00DB11DAA1FA5
S1131330649F6627B00DA11D661F829F2227B00DF2
S1131340A11D621F739FB00DA11D621F839FA00D7D
S1131350611D221F749F3327A00D611D231F849FCD
S1131360600D211D822F762F6A2F11249F57504024
S11313709AF0F1F088234AF0EE0FFF1FBB1F661F9F
S1131380771F881F91505040A9F79E3F510580F068
S11313900C94DF090C946C095F3FE4F3983ED4F39A
S11313A0869577956795B795F795E7959F5FC1F70C
S11313B0FE2B880F911D9695879597F9089597F9B7
S11313C09F6780E870E060E008959FEF80EC0895E7
S11313D000240A9416161706180609060895002410
S11313E00A9412161306140605060895092E03948A
S11313F0000C11F4882352F0BB0F40F4BF2B11F4FE
S113140060FF04C06F5F7F4F8F4F9F4F0895A1E22D
S11314101A2EAA1BBB1BFD010DC0AA1FBB1FEE1F6A
S1131420FF1FA217B307E407F50720F0A21BB30BB5
S1131430E40BF50B661F771F881F991F1A9469F731
S113144060957095809590959B01AC01BD01CF018D
S11314500895EE0FFF1F0590F491E02D0994A29FCB
S1131460B001B39FC001A39F700D811D1124911D74
S1131470B29F700D811D1124911D0895F894FFCF22
S10514803C002A
S9030000FC
